{
  "contractName": "SimpleStorage",
  "abi": [
    {
      "anonymous": false,
      "inputs": [
        {
          "indexed": false,
          "internalType": "string",
          "name": "_text",
          "type": "string"
        },
        {
          "indexed": false,
          "internalType": "address",
          "name": "_addr",
          "type": "address"
        }
      ],
      "name": "textChanged",
      "type": "event"
    },
    {
      "anonymous": false,
      "inputs": [
        {
          "indexed": false,
          "internalType": "uint256",
          "name": "_val",
          "type": "uint256"
        },
        {
          "indexed": false,
          "internalType": "address",
          "name": "_addr",
          "type": "address"
        }
      ],
      "name": "valueChanged",
      "type": "event"
    },
    {
      "inputs": [],
      "name": "read",
      "outputs": [
        {
          "internalType": "uint256",
          "name": "",
          "type": "uint256"
        }
      ],
      "stateMutability": "view",
      "type": "function",
      "constant": true
    },
    {
      "inputs": [
        {
          "internalType": "uint256",
          "name": "newValue",
          "type": "uint256"
        }
      ],
      "name": "write",
      "outputs": [],
      "stateMutability": "nonpayable",
      "type": "function"
    },
    {
      "inputs": [
        {
          "internalType": "string",
          "name": "_greet",
          "type": "string"
        }
      ],
      "name": "setGreet",
      "outputs": [],
      "stateMutability": "nonpayable",
      "type": "function"
    },
    {
      "inputs": [],
      "name": "greet",
      "outputs": [
        {
          "internalType": "string",
          "name": "",
          "type": "string"
        }
      ],
      "stateMutability": "view",
      "type": "function",
      "constant": true
    }
  ],
  "bytecode": "0x608060405234801561001057600080fd5b50610608806100206000396000f3fe608060405234801561001057600080fd5b506004361061004c5760003560e01c80632f048afa1461005157806357de26a41461006d5780639698086b1461008b578063cfae3217146100a7575b600080fd5b61006b600480360381019061006691906102d6565b6100c5565b005b610075610108565b6040516100829190610312565b60405180910390f35b6100a560048036038101906100a09190610392565b610111565b005b6100af610161565b6040516100bc9190610478565b60405180910390f35b806000819055507f783e065ae34a77e36782446ef539f4358f8ad6d70248204a80e718423be8039081336040516100fd9291906104db565b60405180910390a150565b60008054905090565b8181600191906101229291906101f3565b507ee0a464d5de0043a86cb579fd94eaf294903aef11dd4aea776d1681fbd182ec82823360405161015593929190610540565b60405180910390a15050565b606060018054610170906105a1565b80601f016020809104026020016040519081016040528092919081815260200182805461019c906105a1565b80156101e95780601f106101be576101008083540402835291602001916101e9565b820191906000526020600020905b8154815290600101906020018083116101cc57829003601f168201915b5050505050905090565b8280546101ff906105a1565b90600052602060002090601f0160209004810192826102215760008555610268565b82601f1061023a57803560ff1916838001178555610268565b82800160010185558215610268579182015b8281111561026757823582559160200191906001019061024c565b5b5090506102759190610279565b5090565b5b8082111561029257600081600090555060010161027a565b5090565b600080fd5b600080fd5b6000819050919050565b6102b3816102a0565b81146102be57600080fd5b50565b6000813590506102d0816102aa565b92915050565b6000602082840312156102ec576102eb610296565b5b60006102fa848285016102c1565b91505092915050565b61030c816102a0565b82525050565b60006020820190506103276000830184610303565b92915050565b600080fd5b600080fd5b600080fd5b60008083601f8401126103525761035161032d565b5b8235905067ffffffffffffffff81111561036f5761036e610332565b5b60208301915083600182028301111561038b5761038a610337565b5b9250929050565b600080602083850312156103a9576103a8610296565b5b600083013567ffffffffffffffff8111156103c7576103c661029b565b5b6103d38582860161033c565b92509250509250929050565b600081519050919050565b600082825260208201905092915050565b60005b838110156104195780820151818401526020810190506103fe565b83811115610428576000848401525b50505050565b6000601f19601f8301169050919050565b600061044a826103df565b61045481856103ea565b93506104648185602086016103fb565b61046d8161042e565b840191505092915050565b60006020820190508181036000830152610492818461043f565b905092915050565b600073ffffffffffffffffffffffffffffffffffffffff82169050919050565b60006104c58261049a565b9050919050565b6104d5816104ba565b82525050565b60006040820190506104f06000830185610303565b6104fd60208301846104cc565b9392505050565b82818337600083830152505050565b600061051f83856103ea565b935061052c838584610504565b6105358361042e565b840190509392505050565b6000604082019050818103600083015261055b818587610513565b905061056a60208301846104cc565b949350505050565b7f4e487b7100000000000000000000000000000000000000000000000000000000600052602260045260246000fd5b600060028204905060018216806105b957607f821691505b6020821081036105cc576105cb610572565b5b5091905056fea26469706673582212200373c001b37bdafa39db33271846115fb90433fb675855bed0da7a50e1e4515664736f6c634300080e0033",
  "immutableReferences": {},
  "source": "// SPDX-License-Identifier: MIT\npragma solidity >=0.4.22 <0.9.0;\n\ncontract SimpleStorage {\n  uint256 value;\n  string greeter;\n\n  event valueChanged(uint _val, address _addr);\n  event textChanged(string _text, address _addr);\n\n  function read() public view returns (uint256) {\n    return value;\n  }\n\n  function write(uint256 newValue) public {\n    value = newValue;\n    emit valueChanged(newValue, msg.sender);\n  }\n\n  function setGreet(string calldata _greet) public{\n    greeter=_greet;\n    emit textChanged(_greet, msg.sender);\n  }\n\n  function greet() public view returns(string memory){\n    return greeter;\n  }\n}",
  "sourcePath": "/home/cyril/dev/CoursAlyra/testreac/truffle/contracts/SimpleStorage.sol",
  "compiler": {
    "name": "solc",
    "version": "0.8.14+commit.80d49f37.Emscripten.clang"
  },
  "schemaVersion": "3.4.8",
  "updatedAt": "2022-10-29T15:18:02.429Z",
  "networkType": "ethereum",
  "devdoc": {
    "kind": "dev",
    "methods": {},
    "version": 1
  },
  "userdoc": {
    "kind": "user",
    "methods": {},
    "version": 1
  }
}